{
  "contractName": "ERC165",
  "abi": [
    {
      "inputs": [],
      "stateMutability": "nonpayable",
      "type": "constructor"
    },
    {
      "inputs": [
        {
          "internalType": "bytes4",
          "name": "_interfaceID",
          "type": "bytes4"
        }
      ],
      "name": "supportsInterface",
      "outputs": [
        {
          "internalType": "bool",
          "name": "",
          "type": "bool"
        }
      ],
      "stateMutability": "view",
      "type": "function"
    }
  ],
  "bytecode": "0x608060405234801561001057600080fd5b506100276301ffc9a760e01b61002c60201b60201c565b6100ca565b63ffffffff60e01b817bffffffffffffffffffffffffffffffffffffffffffffffffffffffff19160361005e57600080fd5b6001600080837bffffffffffffffffffffffffffffffffffffffffffffffffffffffff19167bffffffffffffffffffffffffffffffffffffffffffffffffffffffff1916815260200190815260200160002060006101000a81548160ff02191690831515021790555050565b6101bd806100d96000396000f3fe608060405234801561001057600080fd5b506004361061002b5760003560e01c806301ffc9a714610030575b600080fd5b61004a60048036038101906100459190610124565b610060565b604051610057919061016c565b60405180910390f35b6000806000837bffffffffffffffffffffffffffffffffffffffffffffffffffffffff19167bffffffffffffffffffffffffffffffffffffffffffffffffffffffff1916815260200190815260200160002060009054906101000a900460ff169050919050565b600080fd5b60007fffffffff0000000000000000000000000000000000000000000000000000000082169050919050565b610101816100cc565b811461010c57600080fd5b50565b60008135905061011e816100f8565b92915050565b60006020828403121561013a576101396100c7565b5b60006101488482850161010f565b91505092915050565b60008115159050919050565b61016681610151565b82525050565b6000602082019050610181600083018461015d565b9291505056fea264697066735822122088a998cff177065e17f011a14d83279a1590bf744b6888823313d74eab9c4aef64736f6c63430008100033",
  "immutableReferences": {},
  "source": "// SPDX-License-Identifier: GPL-3.0\n\npragma solidity ^0.8.0;\n\nimport \"./IERC165.sol\";\n\ncontract ERC165 is IERC165 {\n\n    /// @notice ERC165 interfaceId\n    bytes4 private constant _INTERFACE_ID_ERC165 = 0x01ffc9a7;\n\n    /// @notice map supported function signatures to bool signifying if they're supported or not\n    mapping(bytes4 => bool) supportedInterfaces_;\n\n    constructor() {\n        _registerInterface(_INTERFACE_ID_ERC165);\n    }\n\n    /**\n     * @notice register supported interfaceId\n     * @dev throws if `_sig` is `0xffffffff`\n     * @param _sig the interfaceId\n     */\n    function _registerInterface(bytes4 _sig) internal {\n        require(_sig != 0xffffffff);\n        supportedInterfaces_[_sig] = true;\n    }\n\n    /**\n     * @notice check if the `_interfaceID` is supported\n     * @param _interfaceID the interfaceId to check\n     * @return returns `true` if supported otherwise `false`\n     */\n    function supportsInterface(bytes4 _interfaceID) public view returns (bool) {\n        return supportedInterfaces_[_interfaceID];\n    }\n}",
  "sourcePath": "/Users/josh/Bytangle/Practice/Web3.0 & dApps/contracts/josh-nft/josh-nft-contract/contracts/ERC165.sol",
  "compiler": {
    "name": "solc",
    "version": "0.8.16+commit.07a7930e.Emscripten.clang"
  },
  "schemaVersion": "3.4.9",
  "updatedAt": "2022-08-30T10:55:29.872Z",
  "devdoc": {
    "kind": "dev",
    "methods": {
      "supportsInterface(bytes4)": {
        "params": {
          "_interfaceID": "the interfaceId to check"
        },
        "returns": {
          "_0": "returns `true` if supported otherwise `false`"
        }
      }
    },
    "version": 1
  },
  "userdoc": {
    "kind": "user",
    "methods": {
      "supportsInterface(bytes4)": {
        "notice": "check if the `_interfaceID` is supported"
      }
    },
    "version": 1
  }
}